:03000000020247B2
:0C024700787FE4F6D8FD75816902028E14
:10037D003D3D3D3D3D3D4C4A543D3D3D3D3D3D00AA
:10038D0020206C6F6164696E672E2E2E0020202058
:10039D00202020202020202020202020200031304F
:0B03AD003070706D004D512D323A0091
:0905160001660001690001680E94
:03001B000203E4F9
:1003E400C0E0C0D0758DFF758B9C0569E569D39518
:1003F400685004D2B78002C2B7E569C3946440036D
:08040400756900D0D0D0E03290
:1003B8008F0A8D0B8B0C1204D0AF0A120341200058
:1003C80002C322AF0B120341200002C322AF0C125A
:0C03D8000341200002C3221204FAD322C9
:100477008F0A8D0B1204D0AF0A120341200002C36A
:1004870022AF0B120341200002C3221204FAD32227
:020455008F0A0C
:100457001204D0E50A04FF1203412000037F0022A3
:0F0467001204318F0BD2011200031204FAAF0BF3
:010476002263
:10001E00E4F508F5091204E67BFF7A03797DE4FD29
:10002E00FF1201B47BFF7A03798D7D01E4FF12018B
:10003E00B47FE87E031204977FE87E031204977B59
:10004E00FF7A03799AE4FDFF1201B47BFF7A0379FC
:10005E009A7D01E4FF1201B47BFF7A0379ABE4FDD4
:10006E00FF1201B47BFF7A0379B27D01E4FF120126
:10007E00B4758910758DFF758B9CD28ED2ABD2AFB5
:10008E0075680D7FE87E0302019BE56714602014FE
:10009E006030146040146050240470557D417F9090
:1000AE001204777F901204557526008F2780427DAB
:1000BE00427F901204777F901204557528008F2985
:1000CE00802F7D437F901204777F90120455752AFE
:1000DE00008F2B801C7D407F901204777F9012043E
:1000EE0055752C008F2D8009AB2F7D407F9012030C
:1000FE00B80567E567D394044003E4F567852608E1
:10010E00852709AE08AF097C007D641202ECEF244E
:10011E0030F521AE08AF097C007D641202EC7E0042
:10012E007F0ACFCDCFCECCCE1202ECEF2430F5220B
:10013E00AE08AF097C007D0A1202EC7E007F0ACF6A
:10014E00CDCFCECCCE1202ECED2430F523E4F52447
:10015E00FB7A0079217D017F051201B4D3E5099464
:10016E0064E50894004018C290C2917FC87E0012C8
:10017E000497D290D2917FC87E001204978004D249
:10018E0090D29120B00D7568047FF47E0112049711
:10019E0002009820B0030200987568167FF47E0165
:0601AE0012049702009804
:0B050B00EF1FAC0670011E4C70F622C2
:10049700D3EF9400EE940040147D6E7C00ED1D7048
:0D04A700011CED4C70F7EF1F70E61E80E3A6
:0104B4002225
:1004D000D2A100D2A00000000000C2A100000000D4
:0604E00000C2A000002292
:1004FA00C2A100D2A00000000000D2A100000000AA
:01050A0022CE
:10034100E4FEA806EF088002C333D8FC30E704D2EC
:10035100A18002C2A100D2A00000000000C2A00E34
:10036100BE08DF0000D2A10000D2A000000030A131
:0B03710004C2008002D200C2A0000005
:01037C00225E
:10043100E4FFD2A1FE00C2A00000000000D2A00093
:1004410000EF25E0FF30A1010F00000EBE08E6C25B
:03045100A0000008
:010454002285
:10000300200104C2A18002D2A1000000D2A00000FE
:08001300000000C2A000002261
:1004B500C2A6C2A5C2A78F807F017E00120497D273
:0B04C500A77F017E00120497C2A7224F
:0A040C00AB0BAA0CA90D1202D3FFDE
:10041600D2A6C2A5C2A78F807F017E00120497D202
:0B042600A77F017E00120497C2A722EE
:1004E6007F381204B57F0C1204B57F061204B57F5F
:0404F600010204B546
:050520007F010204B59B
:0801B4008F0A8B0B8A0C890DE8
:1001BC00E4F50EEDD394014003020246E50A940FD8
:1001CC005078EDC394015039AB0BAA0CA90D120257
:1001DC00D36067C37410950AFFE50EC39FE50E50FC
:1001EC00062480250A8004250A24B0FF1204B512C7
:1001FC00040C7401250DF50DE4350CF50C050E8081
:10020C00C7AB0BAA0CA90D1202D3602EC3741095A8
:10021C000AFFE50EC39FE50E500624C0250A800494
:10022C00250A2470FF1204B512040C7401250DF577
:0A023C000DE4350CF50C050E80C72B
:010246002295
:1002530002001EE493A3F8E493A34003F68001F2A3
:1002630008DFF48029E493A3F85407240CC8C333AC
:10027300C4540F4420C8834004F456800146F6DF7B
:10028300E4800B0102040810204080900516E47EF0
:10029300019360BCA3FF543F30E509541FFEE49370
:1002A300A360010ECF54C025E060A840B8E493A337
:1002B300FAE493A3F8E493A3C8C582C8CAC583CA62
:1002C300F0A3C8C582C8CAC583CADFE9DEE780BE1A
:01051F0000DB
:1002D300BB010689828A83E0225002E722BBFE0229
:0902E300E32289828A83E493225C
:1002EC00BC000BBE0029EF8DF084FFADF022E4CCF6
:1002FC00F875F008EF2FFFEE33FEEC33FCEE9DECBF
:10030C00984005FCEE9DFE0FD5F0E9E4CEFD22ED04
:10031C00F8F5F0EE8420D21CFEADF075F008EF2F4E
:10032C00FFED33FD4007985006D5F0F222C398FD3F
:05033C000FD5F0EA22DC
:00000001FF
